:100000000C94E2020C940A030C940A030C940A0365
:100010000C940A030C940A030C940A030C940A032C
:100020000C940A030C940A030C940A030C940A031C
:100030000C940A030C940A030C940A030C940A030C
:100040000C945E0F0C940A030C940A030C940A039C
:100050000C940A030C940A030C940A030C940A03EC
:100060000C94A80F0C940A0300000000003E5B4FA4
:100070005B3E3E6B4F6B3E1C3E7C3E1C183C7E3C08
:10008000181C577D571C1C5E7F5E1C00183C180016
:10009000FFE7C3E7FF0018241800FFE7DBE7FF30A6
:1000A000483A060E2629792926407F050507407F14
:1000B00005253F5A3CE73C5A7F3E1C1C08081C1C87
:1000C0003E7F14227F22145F5F005F5F06097F017D
:1000D0007F006689956A606060606094A2FFA29468
:1000E00008047E040810207E201008082A1C080836
:1000F0001C2A08081E101010100C1E0C1E0C303884
:100100003E3830060E3E0E06000000000000005F84
:1001100000000007000700147F147F14242A7F2AA0
:100120001223130864623649562050000807030062
:10013000001C2241000041221C002A1C7F1C2A08AE
:10014000083E080800807030000808080808000011
:1001500060600020100804023E5149453E00427F85
:10016000400072494949462141494D331814127FD4
:100170001027454545393C4A494931412111090774
:100180003649494936464949291E000014000000F5
:1001900040340000000814224114141414140041C7
:1001A00022140802015909063E415D594E7C121184
:1001B000127C7F494949363E414141227F414141BC
:1001C0003E7F494949417F090909013E4141517337
:1001D0007F0808087F00417F41002040413F017FA8
:1001E000081422417F404040407F021C027F7F0470
:1001F00008107F3E4141413E7F090909063E4151B9
:10020000215E7F09192946264949493203017F01A8
:10021000033F4040403F1F2040201F3F4038403FA9
:10022000631408146303047804036159494D4300BF
:100230007F4141410204081020004141417F0402F6
:10024000010204404040404000030708002054548D
:1002500078407F284444383844444428384444286B
:100260007F385454541800087E090218A4A49C78BE
:100270007F0804047800447D40002040403D007F1A
:100280001028440000417F40007C047804787C08FA
:100290000404783844444438FC18242418182424CE
:1002A00018FC7C08040408485454542404043F44B3
:1002B000243C4040207C1C2040201C3C4030403CE2
:1002C00044281028444C9090907C4464544C440042
:1002D00008364100000077000000413608000201A6
:1002E0000204023C2623263C1EA1A161123A404092
:1002F000207A38545455592155557941225454780F
:1003000042215554784020545579400C1E527212A7
:100310003955555559395454545939555454580030
:1003200000457C410002457D420001457C407D1234
:1003300011127DF0282528F07C5455450020545496
:100340007C547C0A097F4932494949323A44444441
:100350003A324A4848303A4141217A3A424020787C
:10036000009DA0A07D3D4242423D3D4040403D3C7D
:1003700024FF2424487E4943662B2FFC2F2BFF09A2
:1003800029F620C0887E0903205454794100004496
:100390007D413048484A32384040227A007A0A0A81
:1003A000727D0D19317D2629292F282629292926F4
:1003B00030484D4020380808080808080808382F39
:1003C00010C8ACBA2F102834FA00007B00000814C3
:1003D0002A142222142A14085500550055AA55AA99
:1003E00055AAFF55FF55FF000000FF00101010FF39
:1003F00000141414FF001010FF00FF1010F010F094
:10040000141414FC001414F700FF0000FF00FF1484
:1004100014F404FC141417101F10101F101F1414D0
:10042000141F00101010F0000000001F101010101A
:100430001F10101010F010000000FF10101010100E
:1004400010101010FF10000000FF140000FF00FF4C
:1004500000001F10170000FC04F4141417101714E8
:1004600014F404F40000FF00F7141414141414140A
:10047000F700F7141414171410101F101F1414147D
:10048000F4141010F010F000001F101F0000001FE7
:1004900014000000FC140000F010F01010FF10FF1A
:1004A000141414FF141010101F00000000F010FFAF
:1004B000FFFFFFFFF0F0F0F0F0FFFFFF0000000093
:1004C00000FFFF0F0F0F0F0F3844443844FC4A4A17
:1004D0004A347E02020606027E027E0263554941CC
:1004E000633844443C04407E201E2006027E020203
:1004F00099A5E7A5991C2A492A1C4C7201724C3017
:100500004A4D4D303048784830BC625A463D3E49ED
:100510004949007E0101017E2A2A2A2A2A44445F91
:10052000444440514A444040444A51400000FF0185
:1005300003E080FF000008086B6B08361236243693
:10054000060F090F060000181800000010100030F8
:1005500040FF0101001F01011E00191D1712003C80
:100560003C3C3C000000000000000000240027008C
:100570002A00000000080002010000030407000038
:1005800000000000000000000000230026002900F9
:10059000010204081020408001020408102001021A
:1005A0000408102000000000250028002B0004048F
:1005B000040404040404020202020202030303030B
:1005C0000303C31011241FBECFEFD8E0DEBFCDBFA1
:1005D00013E0A0E0B1E0E6ECFDE202C005900D9270
:1005E000AE33B107D9F723E0AEE3B3E001C01D920B
:1005F000A43EB207E1F712E0C2EED2E004C02197B8
:10060000FE010E94B115C13ED107C9F70E946211D7
:100610000C94E1160C940000FC0120812EBD0DB459
:1006200007FEFDCF2EB5FC0120830895833081F0B5
:1006300028F4813099F08230A9F008958730A9F02C
:100640008830C9F08430B1F4809180008F7D03C080
:10065000809180008F7780938000089584B58F7794
:1006600084BD089584B58F7DFBCF8091B0008F77D6
:100670008093B00008958091B0008F7DF9CF1F93D3
:10068000CF93DF93282F30E0F901EE58FA4F849191
:10069000F901E057FA4FD491F901E255FA4FC491AC
:1006A000CC23A9F0162F81110E941603EC2FF0E045
:1006B000EE0FFF1FEC55FA4FA591B4918FB7F89448
:1006C000EC91111108C0D095DE23DC938FBFDF9130
:1006D000CF911F910895DE2BF8CFCF93DF9390E059
:1006E000FC01E057FA4F249182559A4FFC01849106
:1006F0008823D1F090E0880F991FFC01E859FA4F48
:10070000A591B491FC01EC55FA4FC591D4916111BA
:100710000EC09FB7F8948C91E22FE0958E238C93B6
:100720002881E223E8839FBFDF91CF9108958FB79F
:10073000F894EC91E22BEC938FBFF6CF82309105C9
:1007400038F0880F991F880F991F05970197F1F7C7
:1007500008959F92AF92BF92CF92DF92EF92FF9255
:100760000F931F93CF93DF93EC016B0188859985DD
:1007700011E0892B09F010E8F601A0808A2D812371
:10078000992493948111912C2C813D814E815F811C
:1007900060E271EA87E090E00E947B15022FB12CA5
:1007A000E22EF12C002319F0C7010E949E038A85D6
:1007B000877F09F04FC08D858F3F89F09A2D912357
:1007C00081E009F480E0891551F0EF85F8898F897F
:1007D0009923D1F19081892B808399249394E9897D
:1007E000FA898081998D892B8083002319F0C701B4
:1007F0000E949E038E858F3F39F0EB89FC898081B2
:10080000988D892309F0B12AE989FA899081898D27
:100810008095892380838E858F3F11F0F601B08209
:1008200088859985892B09F044C0110F1111BACF21
:10083000DF91CF911F910F91FF90EF90DF90CF90BC
:10084000BF90AF909F900895908180958923808379
:10085000912CC5CFE989FA898081998D892B808374
:10086000002319F0C7010E949E038D858F3F49F038
:10087000EF85F8898F899A2D9123B9F09081892B82
:100880008083E989FA899081898D80958923808385
:100890008E858F3F09F4BFCFEB89FC898081988DCD
:1008A000892309F4B8CFB12AB6CF908180958923E6
:1008B000E7CF1695BBCFAF92BF92CF92DF92EF9268
:1008C000FF920F931F93CF93DF931F92CDB7DEB7A5
:1008D0008C015B016A01DC018D919C911197892B40
:1008E00039F01296ED91FC91908181819CBD8DBD76
:1008F000F80183858F3F19F060E00E943F03750186
:10090000CA0CDB1CCE14DF04A9F0D7018D917D0148
:100910008983F80180819181892B29F0CE0101968C
:100920000E940C03EFCFBE016F5F7F4FC8010E9492
:10093000A903E8CFD8011B968C918F3F19F061E095
:100940000E943F0381E00F90DF91CF911F910F91A3
:10095000FF90EF90DF90CF90BF90AF9008953FB79A
:10096000F8948091B5039091B603A091B703B0912C
:10097000B80326B5A89B05C02F3F19F00196A11D0D
:10098000B11D3FBFBA2FA92F982F8827BC01CD01D9
:10099000620F711D811D911D42E0660F771F881F38
:1009A000991F4A95D1F708958F929F92AF92BF9267
:1009B000CF92DF92EF92FF924B015C010E94AF0455
:1009C0006B017C010E94AF046C197D098E099F099F
:1009D000683E734081059105A8F321E0821A9108D1
:1009E000A108B10888EEC80E83E0D81EE11CF11CF6
:1009F00081149104A104B10429F7FF90EF90DF90D6
:100A0000CF90BF90AF909F908F900895AF92BF927C
:100A1000CF92DF92EF92FF920F931F93CF93DF93CA
:100A20006C017B018B01040F151FEB015E01AE18F9
:100A3000BF08C017D10759F06991D601ED91FC911B
:100A40000190F081E02DC6010995892B79F7C50148
:100A5000DF91CF911F910F91FF90EF90DF90CF909A
:100A6000BF90AF90089520916503260F3327331F61
:100A700021323105ECF420918903FC0190E080E003
:100A8000243069F082E00895A09165032191AC01C2
:100A90004B5B5C4FA40FB52FB11D2C9301968617AD
:100AA00098F380916503680F6093650380E0089573
:100AB00081E0089508958FEF9FEF08958FEF9FEFE6
:100AC000089580913E0390E0919581959109089554
:100AD000CF93DF93CB01EA01642F0E943305CE014F
:100AE000DF91CF910895CF93DF931F92CDB7DEB7FB
:100AF000698361E0CE0101960E94330581E090E0B8
:100B00000F90DF91CF9108950895FC016370668B7B
:100B10008481958126813781613039F0633029F0F5
:100B2000918780873387228708953187208793872D
:100B3000828708952F923F924F925F926F927F9299
:100B40008F929F92AF92BF92CF92DF92EF92FF92DD
:100B50000F931F93CF93DF93CDB7DEB76A970FB68E
:100B6000F894DEBF0FBECDBF9A8F898F7A836983D9
:100B70004A01D22E18870F833701BC2CDC0159960D
:100B80002D913C915A972115310509F015C1189600
:100B90008D919C911997681779070CF0D7C11A9617
:100BA0008D919C91481759070CF0D0C14C2C512CB9
:100BB000B6E0CB9E600D711D11247C876B871616E5
:100BC00017060CF0C3C1EA2DF0E0FA87E98793E03D
:100BD000EE0FFF1F9A95E1F7F88BEF87CF01840F97
:100BE000951F181619060CF0B1C1A98DBA8D58962B
:100BF0008C91811104C0BFEABD1508F4D394A98D6E
:100C0000BA8DED91FC9111970284F385E02DCD0111
:100C10000995B5E0DB9EC0011124E981FA81FC83CE
:100C2000EB83312C212C9C0128593F4F388F2F8B7F
:100C30004A2D50E05E8B4D8BEF89F88DE20DF31D50
:100C400044919E828D82D12CC12C69817A81620D62
:100C5000731D7A8B698B842F90E09C8B8B8BE98D35
:100C6000FA8DA081B18140FF82C0F1E0BF126FC058
:100C7000AF126DC01C96ED91FC912F813885A401B7
:100C80004C0D5D1D69897A89898D9A8D0995EB894D
:100C9000FC89F595E7954E2F5FEFC51AD50A6D8152
:100CA0007E818D899E89680F791F7E836D8398E090
:100CB000C916D10481F6AFEF2A1A3A0AEB81FC81FA
:100CC000E40DF51DFC83EB83F5E02F16310409F0EC
:100CD000B3CF2F81388526153705B9F0A98DBA8D88
:100CE000ED91FC91B1E0BB1257C0AB1255C06981C8
:100CF0007A816B5F7F4F0088F189E02D830128E0C6
:100D000030E0A401898D9A8D0995A98DBA8DED9158
:100D1000FC9111970688F789E02DCD016A960FB6F0
:100D2000F894DEBF0FBECDBFDF91CF911F910F9121
:100D3000FF90EF90DF90CF90BF90AF909F908F90FB
:100D40007F906F905F904F903F902F9009941E96E8
:100D5000ED91FC91EF80F88409851A8592014D810F
:100D60005E816B817C81898D9A8D099590CF2F81D1
:100D700038852615370509F48ACF31E0B31207C04C
:100D8000A31205C01C96ED91FC91930178CF1E969D
:100D9000ED91FC917301E0CF6B857C856419750939
:100DA0000684F785E02D73010F8518899201A4014F
:100DB000898D9A8D0995A9CFF9013496949132972E
:100DC00045915491D91AB7E0DB9E400D511D112475
:100DD000F901259134913C8B2B8BFA0125903490AD
:100DE000FA013296749031963491398B3296649030
:100DF0003196449041E04C1518F04A1508F07FC038
:100E0000662D062C000C770B7C836B83842D042CC1
:100E1000000C990B9E838D83A98DBA8DED91FC9169
:100E200011970284F385E02DCD010995512CD12C29
:100E3000C12CEA2DF0E0FA87E9872B2D30E03C87C2
:100E40002B87A401440D511D47FC5A95588F4F8B99
:100E500069817A81660D711D67FC7A957E876D8741
:100E60007989C71608F051CF2C2D30E04D815E8175
:100E7000420F531FA985BA854A9FC0014B9F900D11
:100E80005A9F900D1124FC01E80DF91DF88BEF8796
:100E9000852D612C4F89588D420F531F5E8B4D8BD2
:100EA000671408F050C044244394480E877041F4FE
:100EB000C1010196EB89FC89E20DF31DD4901C0160
:100EC000D7FE19C0A98DBA8DED91FC91662D70E009
:100ED000B1E0BB1219C0AB1217C02D853E85620F61
:100EE000731F0484F585E02D2F8138854D895E8937
:100EF000898D9A8D0995DD0C6394842DD1CF1E8246
:100F00001D821C821B8288CF4B815C81640F751F00
:100F1000AB85BC856A9FC0016B9F900D7A9F900D39
:100F2000112469817A81680F791F0684F785E02D85
:100F3000EF80F88409851A859D014F855889898D30
:100F40009A8D0995D8CF570CC3948ACF6A960FB65D
:100F5000F894DEBF0FBECDBFDF91CF911F910F91EF
:100F6000FF90EF90DF90CF90BF90AF909F908F90C9
:100F70007F906F905F904F903F902F9008958F9249
:100F80009F92AF92CF92EF92FF920F931F93CF93C6
:100F9000DF93EC01262F898D9A8D009709F051C0BF
:100FA0006A30D1F41D861C868D8948E0849F9001AB
:100FB00011248E859F85820F931F9F878E8781E0E6
:100FC00090E0DF91CF911F910F91FF90EF90CF9024
:100FD000AF909F908F9008956D3089F3CC88AD8845
:100FE0008F898823C1F08C859D8536E0C39E800D56
:100FF000911D1124488559854817590764F44E8579
:101000005F851D861C8638E0A39EC0011124840FD5
:10101000951F9F878E87EA88FB88088919894E85E6
:101020005F856C857D85CE010E949A052C898C8513
:101030009D8546E0249F800D911D11249D878C87FE
:10104000BECF6A3069F41D861C86FC013896E49197
:101050002D898E859F85E29F800D911D1124ADCF36
:101060006D3009F4ACCFFC0134963491631708F469
:10107000A6CF3296E491E61708F4A1CFFC01329690
:1010800085909490462F431B342F47E0349F800C6B
:10109000911C1124F401329634913196E49133235A
:1010A000A9F1EE2399F1CC88F4013596E491AD884D
:1010B0004F89442301F10E2E000CFF0BE30FF11DAD
:1010C000CE9EA001CF9E500D11246C857D85460FCC
:1010D000571F68857985641775076CF44E855F85A1
:1010E0001D861C86FC013896E491AE9E400D511D74
:1010F00011245F874E87EA88FB88088919894E8505
:101100005F856C857D85CE010E949A05F401349639
:10111000E4912C898C859D85E29F800D911D112481
:101120008DCF6F927F928F929F92AF92BF92CF920C
:10113000DF92EF92FF920F931F93CF93DF93EC0117
:101140006B015A0139014801E881F9810284F38574
:10115000E02D0995E881F9810288F389E02D870166
:101160009301A501B601CE010995A501480D591DB0
:1011700041505109E881F9810288F389E02D9301FA
:10118000B601CE010995E881F9810088F189E02D49
:101190009401A501B601CE010995C60CD71CB60174
:1011A00061507109E881F9810088F189E02D94018D
:1011B000A501CE010995E881F9810688F789E02D1E
:1011C000CE01DF91CF911F910F91FF90EF90DF90B3
:1011D000CF90BF90AF909F908F907F906F90099429
:1011E0006F927F928F929F92AF92BF92CF92DF9237
:1011F000EF92FF920F931F93CF93DF935C01EB016C
:101200006A01490138018701DC01ED91FC91621707
:10121000730719F5641675062CF0962D872D3A0183
:10122000C92ED82E9601261937092F5F3F4F048CFF
:10123000F58DE02DA301BE01C5010995DF91CF9188
:101240001F910F91FF90EF90DF90CF90BF90AF90E4
:101250009F908F907F906F9008954615570591F459
:101260002617370724F0892D4B01C22FD82F9E0156
:10127000281939092F5F3F4F068CF78DE02DA60105
:10128000B401DACF0284F385E02D0995D501ED9103
:10129000FC910488F589E02D83019401A601BE012B
:1012A000C5010995D501ED91FC910688F789E02DDE
:1012B000C501DF91CF911F910F91FF90EF90DF90CB
:1012C000CF90BF90AF909F908F907F906F90099438
:1012D000EF92FF920F931F93DC011A960D911C91D0
:1012E0001B9718962D913C911997ED91FC9100A0B8
:1012F000F1A1E02D7B0150E040E070E060E0099555
:101300001F910F91FF90EF9008954F925F926F920F
:101310007F928F929F92AF92BF92CF92DF92EF9285
:10132000FF920F931F93CF93DF936C012B015A0110
:1013300039014801DC01ED91FC910284F385E02D37
:101340000995E201640C751CD601ED91FC91C6155E
:10135000D7055CF40088F189E02D87019401A5018F
:10136000BE01C60109952196EFCF0688F789E02DC9
:10137000C601DF91CF911F910F91FF90EF90DF9009
:10138000CF90BF90AF909F908F907F906F905F9025
:101390004F9009948F929F92AF92BF92CF92DF921B
:1013A000EF92FF920F931F93CF93DF93EC015B01BA
:1013B0004A016901E881F9810284F385E02D0995EC
:1013C00095012C0D3D1D21503109E881F9810488DA
:1013D000F589E02D78018401A401B501CE010995BC
:1013E000E881F9810688F789E02DCE01DF91CF9160
:1013F0001F910F91FF90EF90DF90CF90BF90AF9033
:101400009F908F9009948F929F92AF92BF92CF92AC
:10141000DF92EF92FF920F931F93CF93DF93EC0134
:101420005B014A0169017801E881F9810284F38551
:10143000E02D0995C80CD91C860101501109E881DD
:10144000F9810488F589E02D9501A401B501CE014B
:101450000995E881F9810688F789E02DCE01DF91B1
:10146000CF911F910F91FF90EF90DF90CF90BF90A1
:10147000AF909F908F900994EF92FF920F931F93DC
:10148000DC01ED91FC9100A0F1A1E02D09951F91E7
:101490000F91FF90EF9008950F931F93DC01ED9152
:1014A000FC91068CF78DE02D09951F910F91089501
:1014B0000F931F93DC01ED91FC91048CF58DE02DD1
:1014C00009951F910F910895DC01ED91FC91008425
:1014D000F185E02D09942F923F924F925F926F9287
:1014E0007F928F929F92AF92BF92CF92DF92EF92B4
:1014F000FF920F931F93CF93DF9300D000D000D0C3
:10150000CDB7DEB73C016A013E832D83FC82EB82BE
:101510005801A41AB50AB7FE03C0B194A194B1084A
:101520008D809E80861A970A97FE03C091948194BD
:1015300091088A149B045CF0902F812F0D811E81ED
:101540009D838E839C2D8D2D6B01692F782F0C151B
:101550001D055CF09D818E817E836D83692F782FC0
:10156000902F812F8601C92ED82E1601201A310AFC
:101570002B012D813E81421A530A57FE03C051941C
:1015800041945108710137FE03C03FEFE31AF30A9B
:10159000F594E7948D819E81861797075CF5A1E00D
:1015A000B0E0BA83A983C016D1064CF1D301ED9106
:1015B000FC910484F585E02D2B813C81A8016D818F
:1015C0007E818A149B041CF04D815E81B801C301A9
:1015D0000995E418F508F7FE0AC02D813E8189813E
:1015E0009A81280F391F3E832D83E20CF31C0F5F75
:1015F0001F4FD9CF2FEF3FEF3A832983D4CF2696C1
:101600000FB6F894DEBF0FBECDBFDF91CF911F9113
:101610000F91FF90EF90DF90CF90BF90AF909F9091
:101620008F907F906F905F904F903F902F90089594
:101630000F931F93CF93DF931F92CDB7DEB78C012B
:10164000698360E0FC01868D0E943F0341E050E029
:10165000BE016F5F7F4FF801838D948D0E945B0404
:101660000F90DF91CF911F910F910895CF93C82FC5
:1016700087FDCFE7C093D80361E289EB93E00E9436
:10168000180B6C2F606889EB93E00E94180B60E2E6
:1016900089EB93E0CF910C94180BCF938091D603F4
:1016A00087FD13C061E00E946D0360E08091D60366
:1016B0000E943F0361E070E080E090E00E94D4046B
:1016C00061E08091D6030E943F03C091D903C830E6
:1016D00008F0C7E0C093D90361E289EB93E00E9470
:1016E000180B6C2F606189EB93E00E94180B60E28D
:1016F00089EB93E00E94180B8091D8030E94360B6F
:1017000060E289EB93E00E94180B6CE089EB93E0B8
:10171000CF910C94180BFF920F931F93CF93DF93ED
:101720009091DA03992339F08091DB038F5F891759
:10173000E8F58093DB03D091DE03D695D695D69558
:1017400084E5D89F800111248091DF0386958695DA
:1017500086958D1780F16D2F606489EB93E00E9470
:10176000180BC091DC03F090DD036C2F606889EBEF
:1017700093E00E94180B61E08091D7030E943F0321
:101780004F2D50E06C2F70E0461B570B4F5F5F4FA3
:10179000600F711F60507F4F8091D4039091D503EB
:1017A0000E945B04DF5F0C5A1F4FCECF1092DB0309
:1017B0000E944D0BC0CF60E489EB93E00E94180BB0
:1017C00083E58093DC031092DD038FE28093DE03D8
:1017D0001092DF03DF91CF911F910F91FF90089539
:1017E0001F93CF93DF93EC01162F60E20E94180B3A
:1017F0006CE011116DE0CE01DF91CF911F910C943F
:10180000180BFC0177FD55C0808591856817790715
:101810000CF04FC057FD4DC082859385481759077E
:101820000CF047C08689823009F444C0833009F443
:101830004EC0813031F48FE290E0861B970BBA01E5
:10184000AC01842FA62F93A1691708F4962F93A3B8
:1018500094A19A1708F49A2F94A395A1891708F4D4
:10186000982F95A396A1981708F4982F96A3CA01CC
:1018700057FD0796E3E095958795EA95E1F7A4E58E
:10188000A89FF001A99FF00D1124E60FF71FE0506B
:10189000FF4FCA0168E070E00E94671541E050E028
:1018A00001C0440F8A95EAF78081232BB9F0842B7D
:1018B0008083089583E590E0DC01A61BB70BBD0192
:1018C0008FE290E0DC01A41BB50BAD01BACF83E53C
:1018D00090E0841B950BAB01BC01B3CF40958423F2
:1018E000E7CF089590E080E00895CF92DF92EF92E5
:1018F000FF921F93CF93DF93EB018E508064809310
:101900007C0080917A00806480937A0080917A00D4
:1019100086FDFCCF6091780070917900072E000C55
:10192000880B990B0E9440142AE038E240EA5BE3FE
:101930000E94F5146B017C012DE33AE047E55EE37C
:101940000E940A1418160CF01EC12DE33AE047ED70
:101950005EE3C701B6010E940A1418160CF01AC102
:1019600022E538EB4EE15FE3C701B6010E940A149D
:1019700018160CF015C121EE3AE744E55FE3C70104
:10198000B6010E940A1418160CF010C128EB3EE1B3
:1019900045E85FE3C701B6010E940A1418160CF06F
:1019A0000CC120E030E040EA5FE3C701B6010E94CD
:1019B0000A1418160CF008C128E431EE4AEB5FE374
:1019C000C701B6010E940A1418160CF004C12FE8D2
:1019D00032EC45ED5FE3C701B6010E940A14181608
:1019E0000CF000C129E23CE54FEE5FE3C701B60110
:1019F0000E940A1418160CF0FBC028EB3EE145E0EB
:101A000050E4C701B6010E940A1418160CF0F7C082
:101A10002CE53FE842E150E4C701B6010E940A14F8
:101A200018160CF0F3C020E030E040E250E4C701AB
:101A3000B6010E940A1418160CF0EFC024EA30E731
:101A40004DE250E4C701B6010E940A1418160CF0CA
:101A5000EBC029E23CE54FE350E4C701B6010E9428
:101A60000A1418160CF0E7C024E13EEA47E450E4FB
:101A7000C701B6010E940A1418160CF0E3C028EB47
:101A80003EE145E550E4C701B6010E940A1418166C
:101A90000CF0DFC02CE53FE842E650E4C701B60198
:101AA0000E940A1418160CF0DBC020E030E040E77A
:101AB00050E4C701B6010E940A1418160CF0D7C0F2
:101AC00024EA30E74DE750E4C701B6010E940A144A
:101AD00018160CF0D3C024EA30E745E850E4C701FB
:101AE000B6010E940A1418160CF0CFC02AE037ED98
:101AF0004BE850E4C701B6010E940A1418160CF016
:101B0000CBC02CE53FE842E950E4C701B6010E9492
:101B10000A1418160CF0C7C02EEA37E449E950E45D
:101B2000C701B6010E940A1418160CF0C3C020E0C9
:101B300030E040EA50E4C701B6010E940A141816CA
:101B400034F0C12CD12CB0ECEB2EB1E4FB2EFE0115
:101B5000EE58FA4F8491FE01E057FA4F1491C255A6
:101B6000DA4FFE01C491C111ACC0F7FAF094F7F856
:101B7000F094C701B601DF91CF911F91FF90EF90D4
:101B8000DF90CF900895C12CD12CA0E8EA2EAFE3CE
:101B9000FA2EDDCFC12CD12CE12CF0E4FF2ED7CFD3
:101BA000C12CD12CE0E4EE2EFE2CD1CFC12CD12CB7
:101BB00070E8E72E70E4F72ECACFC12CD12C60EA72
:101BC000E62E60E4F62EC3CFC12CD12C50ECE52ECE
:101BD00050E4F52EBCCFC12CD12C40EEE42E40E4D5
:101BE000F42EB5CFC12CD12CE12C31E4F32EAFCFA4
:101BF000C12CD12C20E1E22E21E4F22EA8CFC12C61
:101C0000D12C90E2E92E91E4F92EA1CFC12CD12C58
:101C100080E3E82E81E4F82E9ACFC12CD12C10E479
:101C2000E12E11E4F12E93CFC12CD12CB0E5EB2E97
:101C3000B1E4FB2E8CCFC12CD12CA0E6EA2EA1E47E
:101C4000FA2E85CFC12CD12CF0E7EF2EF1E4FF2E38
:101C50007ECFC12CD12CE0E8EE2EE1E4FE2E77CF32
:101C6000C12CD12C78E8E72E71E4F72E70CFC12C6F
:101C7000D12C60E9E62E61E4F62E69CFC12CD12C7F
:101C800058E9E52E51E4F52E62CFC12CD12C40EA63
:101C9000E42E41E4F42E5BCFC12CD12C38EAE32EA4
:101CA00031E4F32E54CFC12CD12C20EBE22E21E4D1
:101CB000F22E4DCFC12CD12C98EBE92E91E4F92EC8
:101CC00046CF81110E941603EC2FF0E0EE0FFF1FAC
:101CD000EA57FA4FA591B491EC911E2309F445CF30
:101CE00048CFE0E0F1E088EF91E0DF019C011D9238
:101CF00021503040E1F71092DC038091DD03833501
:101D000008F483E58093DD031092DE038091DF0306
:101D10008F3208F48FE28093DF031092C603109293
:101D2000C5031092C8031092C7030895FC010190E7
:101D30000020E9F73197AF01481B590BBC0189EB33
:101D400093E00C9406058F929F92AF92BF920F93EF
:101D50001F93CF93DF93CDB7DEB7A1970FB6F8945B
:101D6000DEBF0FBECDBF19A2423008F44AE08E019B
:101D70000F5D1F4F842E912CB12CA12CA501940135
:101D80000E947B15E62FB901CA01EA30F4F4E05D48
:101D9000D801EE938D01232B242B252B79F790E08E
:101DA00080E0109719F0CD010E94960EA1960FB613
:101DB000F894DEBF0FBECDBFDF91CF911F910F9181
:101DC000BF90AF909F908F900895E95CE1CF0E9403
:101DD000DC161F93CF93DF9385ED8093BC00809139
:101DE000410390914203A0914303B09144030796AD
:101DF000A11DB11D23E0B695A795979587952A95C6
:101E0000D1F72091BC0024FD03C01092890352C079
:101E10004091410350914203609143037091440308
:101E2000452B462B472B69F30097A105B10541F0DF
:101E30002AE22A95F1F700C00197A109B109E1CF83
:101E400080914003C1E0C0933F03882399F1D09172
:101E5000B8001091BA008091BC008A7B8093BC00CE
:101E600060E082E10E943F0360E083E10E943F0363
:101E700010928903C0938B0310928A0361E082E180
:101E80000E943F0361E083E10E943F038091B9001B
:101E90008E7F8093B9008091B9008D7F8093B900C7
:101EA00088E48093B80085E48093BC001093BA0066
:101EB000D093B800DF91CF911F9108951F920F9298
:101EC0000FB60F9211242F933F938F939F93AF934D
:101ED000BF938091B1039091B203A091B303B091ED
:101EE000B4033091B00323E0230F2D3758F501964A
:101EF000A11DB11D2093B0038093B1039093B20351
:101F0000A093B303B093B4038091B5039091B6034B
:101F1000A091B703B091B8030196A11DB11D8093A4
:101F2000B5039093B603A093B703B093B803BF91E2
:101F3000AF919F918F913F912F910F900FBE0F9076
:101F40001F90189526E8230F0296A11DB11DD2CF30
:101F50001F920F920FB60F9211242F933F934F931E
:101F60005F936F937F938F939F93AF93BF93EF9301
:101F7000FF938091B900887F803609F44AC0F0F55C
:101F8000883209F4A5C018F5803109F499C0B8F475
:101F9000882309F4F5C0883009F492C0FF91EF91CD
:101FA000BF91AF919F918F917F916F915F914F9171
:101FB0003F912F910F900FBE0F901F901895883171
:101FC00009F486C0803251F78093880314C08034AE
:101FD00009F49BC040F48033B9F38833F9F6809359
:101FE000880385ECAEC0803509F483C0883509F4D8
:101FF00094C0883499F60E94E90ED0CF883909F44C
:102000008AC038F5883729F050F4883611F08037C7
:1020100029F683E0809389031092870355C088389E
:1020200009F479C0803919F0803809F0B7CF809170
:102030008703803208F06FC0E091870381E08E0F44
:10204000809387038091BB00F0E0E959FC4F8083C7
:102050003BC0803B39F0D0F4803A09F477C0883A2D
:1020600009F09CCF84E0809389031092660310925C
:102070006503F0E0E0E009958091650381110FC0F0
:1020800081E0809365031092450309C0803C09F408
:10209000A8CF883C09F4A5CF883B09F07FCFE09119
:1020A000660381E08E0F80936603F0E0EB5BFC4FEC
:1020B00080818093BB00909166038091650329C065
:1020C0008091AE038093BB0085EC8093BC0066CF0B
:1020D0009091AD038091AC03981758F5E091AD0352
:1020E00081E08E0F8093AD03F0E0E457FC4F8081D8
:1020F000E9CFE091AD0381E08E0F8093AD03809135
:10210000BB00F0E0E457FC4F80839091AD038091D9
:10211000AC039817C8F285E8D8CFE091AD0381E011
:102120008E0F8093AD038091BB00F0E0E457FC4F2D
:10213000808380918B0381115ECF81E080938A033D
:1021400084EA8093BC001092890328CF85EC8093A9
:10215000BC001092890380918703803230F4E091B3
:102160008703F0E0E959FC4F10826091870370E02B
:1021700087E693E0F0E0E0E00995109287030ECF48
:102180001092880338CFCF93DF93C9EBD3E01B8243
:102190001A8224E530E03D832C8380E390E09F8326
:1021A0008E83398728879B878A871E8A1D861C868F
:1021B0001F861E8681E08D8B8C8B2FEF3FEF3B8B34
:1021C0002A8B398B288B8F8B188E1A8E198E82E072
:1021D00093E0998388838CE190E00E94B715DC013D
:1021E00011961C921E9213961C921E92129789E0D1
:1021F0001B968C931B978DE01C968C931C978FEFEE
:102200001E968C931E978BE01D968C931D97E7EB83
:10221000F5E0E491F0E0EE0FFF1FEC55FA4F8591E9
:10222000949156969C938E935597E9E9F5E0E49145
:102230005A96EC935A97E9EBF5E0E491F0E0EE0F53
:10224000FF1FEC55FA4F8591949150969C938E9375
:102250001F97EBE9F5E0E4915796EC935797EBEB7A
:10226000F5E0E491F0E0EE0FFF1FEC55FA4F859199
:10227000949152969C938E935197EDE9F5E0E491F9
:102280005996EC93599740E059E06DE370E014964D
:102290004D935D936D937C93179781E090E0199631
:1022A0009C938E9318971A961C921A975B961C9281
:1022B0005B97BC8FAB8F8AE08E8F88E08D8FDF912C
:1022C000CF910895CF93DF93CDB7DEB760970FB668
:1022D000F894DEBF0FBECDBF789484B5826084BD14
:1022E00084B5816084BD85B5826085BD85B581601A
:1022F00085BD80916E00816080936E001092810098
:102300008091810082608093810080918100816052
:102310008093810080918000816080938000809113
:10232000B10084608093B1008091B000816080939F
:10233000B00080917A00846080937A0080917A0066
:10234000826080937A0080917A00816080937A0025
:1023500080917A00806880937A001092C10061E0D9
:1023600083E00E946D0361E084E00E946D0361E000
:1023700085E00E946D0361E086E00E946D0360E0ED
:1023800087E00E946D0360E082E00E946D0360E0E0
:1023900083E10E946D0360E082E10E946D03009181
:1023A000D4031091D503F80183858F3F41F061E09C
:1023B0000E946D0361E0F80183850E943F03F801EC
:1023C00080819181892B09F404C1FFB6F894809132
:1023D000AF03811127C0E8EBF5E08491EAE9F5E06D
:1023E0009491E82FF0E0EE0FFF1FE859FA4FA59106
:1023F000B491EC91E92321F461E08AE00E943F036B
:1024000061E08AE00E946D038CB580618CBD8CB563
:1024100080648CBD61E08DE00E946D0361E08BE023
:102420000E946D038091AF038F5F8093AF03FFBE67
:1024300081E0F801838F61E08091D7030E946D03F2
:102440008091D60387FD03C061E00E946D0384E0A4
:102450008093D90388E28093D8031092DA03109214
:10246000DB030E944D0B1092DC038091DD0383356A
:1024700008F483E58093DD031092DE038091DF038F
:102480008F3208F48FE28093DF030E948B0B82E38C
:102490000E94360B0E94710E67E070E081E190E0CF
:1024A0000E94750C69837A838B839C8362E070E061
:1024B00080E190E00E94750C6D837E838F83988706
:1024C00063E170E08FE090E00E94750C69877A8785
:1024D0008B879C8762E170E08EE090E00E94750C33
:1024E0006D877E878F87988BCE0101961C017C01BA
:1024F00013E0F70181909190A190B1907F0120E0CD
:1025000030E040EA51ECC501B4010E940A1487FD95
:102510000BC020E030E040EA51E4C501B4010E9464
:10252000F01460E018160CF461E0812F0E943F0364
:102530001F5F1730F1F60E94710E812C912C54010F
:10254000839410E000E01092C6031092C50310932C
:10255000C8030093C7038AE293E00E94960E4AE004
:10256000C501B4010E94A30E8DE293E00E94960E75
:10257000F101C190D190E190F1901F01A701960166
:10258000C701B6010E946215882309F444C080E3A4
:1025900093E00E94960E8CE393E00E94960E085FF3
:1025A0001F4FFFEF8F1A9F0AAF0ABF0A00321105B3
:1025B00051F60E948B0B68EE73E080E090E00E9481
:1025C000D40480E090E0892B09F466CF0E940000DB
:1025D00063CF61E084850E946D03F80182858B7F63
:1025E00060E009F061E084850E943F03F801858581
:1025F0008F3F41F061E00E946D0361E0F801858545
:102600000E943F03F80186858F3F09F411CF60E0F7
:102610000E946D030DCF26013701E89477F82FEF64
:102620003FEF4FE75FE7C301B2010E9462158111DE
:102630000DC02FEF3FEF4FE75FE7C301B2010E94EC
:102640000A1418161CF484E393E0A3CF2FEF3FEF96
:102650004FE75FE4C701B6010E94F01418161CF49E
:1026600088E393E096CF2FEF3FEF4FE75FECC70192
:10267000B6010E940A1487FDF3CF20E030E0A901E3
:10268000C701B6010E940A1487FF09C06DE289EBF9
:1026900093E00E94BF07F7FAF094F7F8F0942AE06D
:1026A00037ED43EA5BE3C701B6010E949E132B019D
:1026B0003C010E940F146B017C010E943E149B019F
:1026C000AC01C301B2010E949D132B013C014AE001
:1026D000C701B6010E94A30E6EE289EB93E00E944F
:1026E000BF0720E030E040E251E4C301B2010E94A4
:1026F000F5142B013C010E940F146B01F12CE12C0D
:102700004AE0C701B6010E94A30EC701B6010E94AC
:102710003E149B01AC01C301B2010E949D1320E055
:1027200030E040E251E40E94F5140E940F1490E062
:1027300080E04AE00E94A30E2ECF5058BB27AA2764
:102740000E94B5130C94B6140E94A81438F00E948D
:10275000AF1420F039F49F3F19F426F40C94A5141B
:102760000EF4E095E7FB0C949F14E92F0E94C71428
:1027700058F3BA17620773078407950720F079F4B6
:10278000A6F50C94E9140EF4E0950B2EBA2FA02DAB
:102790000B01B90190010C01CA01A0011124FF270E
:1027A000591B99F0593F50F4503E68F11A16F04009
:1027B000A22F232F342F4427585FF3CF4695379508
:1027C0002795A795F0405395C9F77EF41F16BA0BCD
:1027D000620B730B840BBAF09150A1F0FF0FBB1F7B
:1027E000661F771F881FC2F70EC0BA0F621F731FC4
:1027F000841F48F4879577956795B795F7959E3F21
:1028000008F0B0CF9395880F08F09927EE0F9795B1
:10281000879508950E947B1408F481E008950E9432
:10282000CF1488F09F5798F0B92F9927B751B0F07F
:10283000E1F0660F771F881F991F1AF0BA95C9F744
:1028400014C0B13091F00E94E914B1E008950C94E5
:10285000E914672F782F8827B85F39F0B93FCCF398
:10286000869577956795B395D9F73EF490958095C1
:10287000709561957F4F8F4F9F4F0895E89409C0E1
:1028800097FB3EF490958095709561957F4F8F4FA3
:102890009F4F9923A9F0F92F96E9BB279395F695B9
:1028A000879577956795B795F111F8CFFAF4BB0F37
:1028B00011F460FF1BC06F5F7F4F8F4F9F4F16C09B
:1028C000882311F096E911C0772321F09EE8872F25
:1028D000762F05C0662371F096E8862F70E060E0E1
:1028E0002AF09A95660F771F881FDAF7880F96955A
:1028F000879597F90895990F0008550FAA0BE0E8FE
:10290000FEEF16161706E807F907C0F012161306B1
:10291000E407F50798F0621B730B840B950B39F4F1
:102920000A2661F0232B242B252B21F408950A2657
:1029300009F4A140A6958FEF811D811D089597F997
:102940009F6780E870E060E008959FEF80EC089555
:1029500000240A941616170618060906089500247E
:102960000A9412161306140605060895092E0394F8
:10297000000C11F4882352F0BB0F40F4BF2B11F46C
:1029800060FF04C06F5F7F4F8F4F9F4F089557FDCB
:102990009058440F551F59F05F3F71F04795880FCD
:1029A00097FB991F61F09F3F79F087950895121664
:1029B00013061406551FF2CF4695F1DF08C0161610
:1029C00017061806991FF1CF8695710561050894C1
:1029D0000895E894BB2766277727CB0197F90895D8
:1029E0000E947B1408F48FEF08950E9408150C9440
:1029F000B6140E94A81438F00E94AF1420F095235A
:102A000011F00C949F140C94A51411240C94EA1446
:102A10000E94C71470F3959FC1F3950F50E0551FA6
:102A2000629FF001729FBB27F00DB11D639FAA2723
:102A3000F00DB11DAA1F649F6627B00DA11D661F72
:102A4000829F2227B00DA11D621F739FB00DA11D93
:102A5000621F839FA00D611D221F749F3327A00D4D
:102A6000611D231F849F600D211D822F762F6A2FE9
:102A700011249F5750409AF0F1F088234AF0EE0F4E
:102A8000FF1FBB1F661F771F881F91505040A9F77B
:102A90009E3F510580F00C949F140C94EA145F3F04
:102AA000E4F3983ED4F3869577956795B795F795B7
:102AB000E7959F5FC1F7FE2B880F911D969587952F
:102AC00097F908950E947B14880B990B089597FB42
:102AD000072E16F4009407D077FD09D00E949D15AB
:102AE00007FC05D03EF4909581959F4F0895709511
:102AF00061957F4F0895A1E21A2EAA1BBB1BFD0111
:102B00000DC0AA1FBB1FEE1FFF1FA217B307E407CC
:102B1000F50720F0A21BB30BE40BF50B661F771F24
:102B2000881F991F1A9469F7609570958095909504
:102B30009B01AC01BD01CF010895AA1BBB1B51E154
:102B400007C0AA1FBB1FA617B70710F0A61BB70B1D
:102B5000881F991F5A95A9F780959095BC01CD01C2
:102B60000895EE0FFF1F0590F491E02D09940F9347
:102B70001F93CF93DF938230910510F482E090E0B1
:102B8000E091E203F091E30330E020E0B0E0A0E068
:102B9000309799F42115310509F44AC0281B390BE7
:102BA00024303105D8F58A819B816115710589F141
:102BB000FB0193838283FE0111C040815181028118
:102BC000138148175907E0F04817590799F41097EF
:102BD00061F012960C93129713961C933296CF01C4
:102BE000DF91CF911F910F9108950093E20310930D
:102BF000E303F4CF2115310551F04217530738F0A4
:102C0000A901DB019A01BD01DF01F801C1CFEF018C
:102C1000F9CF9093E3038093E203CDCFFE01E20F5F
:102C2000F31F819391932250310939832883D7CFA1
:102C30002091E0033091E103232B41F42091FA022B
:102C40003091FB023093E1032093E0032091F802DE
:102C50003091F9022115310541F42DB73EB740916D
:102C6000FC025091FD02241B350BE091E003F09132
:102C7000E103E217F307A0F42E1B3F0B28173907D7
:102C800078F0AC014E5F5F4F2417350748F04E0FC8
:102C90005F1F5093E1034093E003819391939FCF93
:102CA000F0E0E0E09CCFCF93DF930097E9F0FC01E8
:102CB000329713821282A091E203B091E303ED01F7
:102CC00030E020E01097A1F420813181820F931F22
:102CD0002091E0033091E1032817390709F061C022
:102CE000F093E103E093E003DF91CF910895EA01CF
:102CF000CE17DF07E8F54A815B819E01411551053A
:102D0000B1F7E901FB83EA8349915991C40FD51FBB
:102D1000EC17FD0761F4808191810296840F951F65
:102D2000E90199838883828193819B838A83F0E080
:102D3000E0E012968D919C9113970097B9F52D9133
:102D40003C911197CD010296820F931F2091E003D1
:102D50003091E1032817390739F6309751F5109271
:102D6000E3031092E203B093E103A093E003BCCF2E
:102D7000D383C28340815181840F951FC817D9071F
:102D800061F44E5F5F4F88819981480F591F5183CD
:102D900040838A819B81938382832115310509F0C9
:102DA000B0CFF093E303E093E2039ECFFD01DC019B
:102DB000C0CF13821282D7CF81E090E0F8940C94B8
:062DC000E116F894FFCFBC
:102DC60000000000000000000000000000000000FD
:102DD60000000000000000000000000000000000ED
:102DE600000000000000C0E0F0F8FCFCFEFFFCE084
:102DF60000000000000000000000000000000000CD
:102E060000000000000000000000000000000000BC
:102E160000000000000000000000000000000000AC
:102E26000000000000F8F8F8F8F8F8F8F8F8F8F8F4
:102E3600F8F0F0E0E0C080C0FCFFFFFFFF7F3F7FBF
:102E4600FFFFFFFFFF000000000000000000000081
:102E5600000000000000000000000000000000006C
:102E6600000000000000000000000000000000005C
:102E7600000000000000000000000F1F3F7FFFFF62
:102E8600FFFFFFFFFFFFE7C7C7878F9F9FFFFFFF7C
:102E9600C1C0E0FCFFFFFFFFFFFCFCFCFCFEFEFEEA
:102EA600FCFCF8F8F0E0C0C00000000000000000E4
:102EB600000000000000000000000000000000000C
:102EC60000000000000000000000000000000000FC
:102ED6000080C0E0F1FBFFFFFFFFFF7F1F0F0F87A2
:102EE600E7FFFFFF1F1F3FF9F8F8F8F8F8F8FDFFB6
:102EF600FFFFFFFFFFFFFFFF7F3F0F0701000000FF
:102F060000000000000000000000000000000000BB
:102F160000000000000000000000000000000000AB
:102F2600000000F0FEFFFFFFFFFFFFFFFFFFFFFEB9
:102F36007E3F3F0F1FFFFFFFFCF0E0F1FFFFFFFFAB
:102F4600FFFCF00101010101010101000000000088
:102F5600000000000000000000000000000000006B
:102F6600000000000000000000000000000000005B
:102F76000000000000000003030303030303030132
:102F860001010100000000000000030F1F3F7F7FCA
:102F9600FFFFFFFF7F7F1F0300000000000000000F
:102FA600000000000000000000000000000000001B
:102FB60000000000000000000000E40380000000A4
:102FC6000000BF070605720C710C010C5A05640A55
:102FD6003C0A580A4C0A6B0A5A058505F00B030A87
:102FE600CA0985096809F00891084368003A200073
:0E2FF6006E616E00696E66006F7666005600B2
:00000001FF
