:1000000014C076C05FC021C020C01FC01EC01DC06C
:100010001CC01BC01AC019C018C017C016C015C01C
:1000200014C013C012C011C010C011241FBECFE5F0
:10003000D1E0DEBFCDBF20E0A0E6B0E001C01D9260
:10004000A736B207E1F777D092C0DACF809165008A
:10005000909166008230910501F11CF4019739F00E
:10006000089583309105C9F0049769F008951092BE
:1000700064001092630018BA84E090E090936200EC
:1000800080936100089580916000882371F082E080
:1000900090E0909362008093610089E290E09093F9
:1000A00064008093630088BB089582E090E09093A1
:1000B00062008093610089E290E0909364008093F5
:1000C000630008951F920F920FB60F9211248F9321
:1000D0009F9380916100909162009093660080935D
:1000E00065009F918F910F900FBE0F901F901895F4
:1000F0001F920F920FB60F9211242F933F934F939D
:100100005F936F937F938F939F93AF93BF93EF937F
:10011000FF93D8DFFF91EF91BF91AF919F918F91A6
:100120007F916F915F914F913F912F910F900FBEF3
:100130000F901F90189581E090E09093620080935B
:100140006100909366008093650018BA10BA12BAE5
:100150008FE787BB83EF81BB8BB780648BBF8BB787
:1001600080688BBF85B7836085BF70DFFECFF89452
:02017000FFCFBF
:00000001FF
