:1000000014C0BAC022C021C020C01FC0CEC01DC0B5
:100010001CC01BC01AC019C018C017C016C015C01C
:1000200014C013C012C011C010C011241FBECFE5F0
:10003000D1E0DEBFCDBF20E0A0E6B0E001C01D9260
:10004000AE36B207E1F7D1D017C1DACF80916C009C
:1000500090916D008330910509F457C034F48130DC
:10006000910559F0029721F108958430910509F422
:1000700056C0059709F45EC0089589E288BB809157
:100080006500909166000A970CF475C0809162003B
:10009000882309F470C082E090E090936B00809315
:1000A0006A00109266001092650010926200089536
:1000B000809165009091660064EF71E0B6D0892B65
:1000C00069F498B382E0892788BB809160009091A1
:1000D00061000196909361008093600080916000C0
:1000E0009091610006970CF446C0C19883E090E0BF
:1000F00090936B0080936A001092660010926500E6
:1001000010926100109260000895C29A84E090E01D
:1001100090936B0080936A0081E090E028C0C69ABB
:10012000C19885E090E090936B0080936A0083E033
:1001300090E01DC080916500909166001816190628
:1001400074F4809165009091660001979093660029
:100150008093650098B380E4892788BB0895C6988A
:10016000C59A81E090E090936B0080936A00909331
:1001700066008093650008951F920F920FB60F924C
:1001800011248F939F9381E08093620080916A0095
:1001900090916B0090936D0080936C009F918F9174
:1001A0000F900FBE0F901F9018951F920F920FB6D1
:1001B0000F9211242F938F939F93809165009091BC
:1001C0006600883B9B404CF48091650090916600EE
:1001D000019690936600809365009F918F912F9177
:1001E0000F900FBE0F901F90189581E090E09093B4
:1001F0006B0080936A0090936D0080936C0018BA36
:1002000010BA12BA8FE787BB83EF81BB8BB78064CC
:100210008BBF85B7836085BF10BE85E083BF89B77C
:10022000826089BF789412DFFECF97FB072E16F409
:10023000009406D077FD08D00BD007FC05D03EF423
:10024000909581959F4F0895709561957F4F089582
:10025000AA1BBB1B51E107C0AA1FBB1FA617B707EC
:1002600010F0A61BB70B881F991F5A95A9F7809508
:0C0270009095BC01CD010895F894FFCFDB
:00000001FF
