:1000000014C099C022C021C020C01FC0A3C01DC001
:100010001CC01BC01AC019C018C017C016C015C01C
:1000200014C013C012C011C010C011241FBECFE5F0
:10003000D1E0DEBFCDBF20E0A0E6B0E001C01D9260
:10004000AE36B207E1F79DD0BCC0DACF80916C002C
:1000500090916D008230910551F11CF4019759F097
:1000600061C08330910509F44AC0049709F05AC071
:10007000C298C69A57C089E288BB8091650090916A
:100080006600883E93400CF44DC080916200882346
:1000900009F448C082E090E090936B0080936A007E
:1000A0001092660010926500109262003BC0809131
:1000B0006500909166008C329140ECF48091600074
:1000C0009091610080FD02C0C19A01C0C198209149
:1000D0006500309166008091600090916100281762
:1000E000390701F18091650090916600909361005D
:1000F0008093600017C0C19883E090E00BC0C19866
:10010000C29A80916500909166001816190654F401
:1001100084E090E090936B0080936A0010926600F8
:100120001092650080916A0090916B0090936D0031
:1001300080936C0008951F920F920FB60F921124B6
:100140008F9381E0809362008F910F900FBE0F908C
:100150001F9018951F920F920FB60F9211248F9334
:100160009F93809165009091660001969093660040
:10017000809365009F918F910F900FBE0F901F90FD
:10018000189581E090E090936B0080936A009093C3
:100190006D0080936C0018BA10BA12BA8FE787BB53
:1001A00083EF81BB8BB780648BBF85B7836085BFCE
:1001B00010BE85E083BF89B7826089BF789446DF2F
:0601C000FECFF894FFCF12
:00000001FF
