:1000000014C0A4C08DC021C064C01FC01EC01DC0CC
:100010001CC01BC01AC019C018C017C016C015C01C
:1000200014C013C012C011C010C011241FBECFE5F0
:10003000D1E0DEBFCDBF20E0A0E6B0E001C01D9260
:10004000AA36B207E1F7AAD0D6C0DACF809168000D
:10005000909169008230910599F08330910589F182
:100060000197B1F589E290E0909367008093660074
:1000700088BB82E090E090936500809364000895CF
:1000800080916300882341F089E290E090936700BB
:100090008093660088BB0AC089E290E09093670075
:1000A0008093660088BB81E08093630083E090E0EA
:1000B000909365008093640010926200109261003A
:1000C000089584E590E0909367008093660088BB74
:1000D00008951F920F920FB60F9211248F939F9342
:1000E00080916100909162000196909362008093EC
:1000F00061008091610090916200079750F010922A
:1001000062001092610082E090E090936900809319
:1001100068009F918F910F900FBE0F901F901895C0
:100120001F920F920FB60F9211248F939F9380917D
:1001300064009091650090936900809368009F919E
:100140008F910F900FBE0F901F9018951F920F92D6
:100150000FB60F9211242F933F934F935F936F939A
:100160007F938F939F93AF93BF93EF93FF93D8DFCA
:10017000FF91EF91BF91AF919F918F917F916F917F
:100180005F914F913F912F910F900FBE0F901F9055
:1001900018951092620010926100089581E090E03D
:1001A0009093650080936400909369008093680049
:1001B00018BA10BA12BA18BA10BA12BA8FE787BBB7
:1001C00083EF81BB8BB780648BBF8BB780688BBF9D
:1001D00085B7836085BF8EB588608EBD84E89EE15B
:1001E0009BBD8ABD89B7806489BF8EB585608EBD91
:0A01F00078942CDFFECFF894FFCFC7
:00000001FF
