:1000000014C02FC02DC02CC02BC02AC03EC028C099
:1000100027C026C025C024C023C022C021C020C0C4
:100020001FC01EC01DC01CC01BC011241FBECFE5B9
:10003000D1E0DEBFCDBF10E0A0E6B0E0E8EAF2E03C
:1000400002C005900D92A236B107D9F720E0A2E6D2
:10005000B0E001C01D92AA36B207E1F716D122C165
:10006000CFCF1F920F920FB60F9211248F939F93B1
:1000700081E090E090936900809368009F918F9158
:100080000F900FBE0F901F9018951F920F920FB6F2
:100090000F9211248F939F93809166009091670037
:1000A0008F33910571F41092670010926600809171
:1000B00062009091630001969093630080936200C8
:1000C00005C0019690936700809366009F918F9181
:1000D0000F900FBE0F901F90189510BE13BE83B7E0
:1000E000856083BF789412BE89B7826089BF089506
:1000F00087B38F6087BB8BB780648BBF85B78E60FB
:1001000085BF0895F5DFE9CF809164009091650087
:100110008230910509F476C034F4009759F00197C4
:1001200009F47CC008958330910509F494C00497C4
:1001300011F1089585E090E0909361008093600054
:1001400086E088BB8091680090916900019709F072
:100150009BC080916200909163000A970CF494C058
:100160001092670010926600109263001092620075
:1001700084E090E03FC0809162009091630003971B
:100180004CF580916600909167008E31910531F0B9
:100190008A35910519F08639910559F480916000EE
:1001A00090916100059711F482E001C088E088BB5E
:1001B00008958C33910521F08837910509F064C0CA
:1001C0008091600090916100059711F486E0EFCF77
:1001D00089E0EDCF80916000909161001092630002
:1001E000109262001092670010926600059739F431
:1001F00082E090E09093650080936400089583E02E
:1002000090E0F8CF8AE088BB809162009091630013
:1002100018161906CCF581E090E010C089E088BB83
:1002200086E090E09093610080936000809162008E
:10023000909163000A9744F184E090E09093650008
:100240008093640010926700109266001092630021
:100250001092620008958AE088BB809162009091BC
:1002600063001816190684F4109265001092640059
:100270001092670010926600109263001092620064
:100280001092690010926800089588B318BA10920D
:10029000650010926400109269001092680032DFCD
:0802A00033DFFECFF894FFCF1D
:0202A80005004F
:00000001FF
