:1000000014C0A9C099C021C020C01FC041C01DC0DC
:100010001CC01BC01AC019C018C017C016C015C01C
:1000200014C013C012C011C010C011241FBECFE5F0
:10003000D1E0DEBFCDBF20E0A0E6B0E001C01D9260
:10004000A536B207E1F7BAD0C0C0DACF10BE13BEF2
:1000500083B7856083BF789412BE89B7826089BFF9
:10006000089587B38F6087BB8BB780648BBF85B7DC
:100070008A6085BF0895F5DFE9CF9093640080938F
:100080006300109262001092610010926000089567
:100090001F920F920FB60F9211242F933F934F93FD
:1000A0005F936F937F938F939F93AF93BF93EF93E0
:1000B000FF9380916100909162000196909362009D
:1000C00080936100209163003091640021303105FC
:1000D00089F038F02230310599F023303105B1F044
:1000E0001AC00A9724F4809160008823A1F081E06F
:1000F00090E010C01816190674F482E090E00AC06F
:100100001816190644F483E090E004C00A971CF026
:1001100080E090E0B2DFFF91EF91BF91AF919F91AE
:100120008F917F916F915F914F913F912F910F90A0
:100130000FBE0F901F9018951F920F920FB60F923F
:1001400011248F9381E0809360008F910F900FBEF8
:100150000F901F9018951F920F920FB60F921124B7
:100160002F933F934F935F936F937F938F939F93BF
:10017000AF93BF93EF93FF93DFDFFF91EF91BF91B9
:10018000AF919F918F917F916F915F914F913F912F
:100190002F910F900FBE0F901F90189580916300C4
:1001A000909164008130910531F018F0039729F4A3
:1001B00002C086E001C08AE088BB089588B318BAFF
:0E01C0001092600058DFEADFFECFF894FFCF08
:00000001FF
