:020000040000FA
:10000000000002283E30AE000230AF008030000019
:100010000000F6210000000083120000C2002F083B
:10002000C1004030C3000230C40083120000410808
:10003000C5004208C600FF30C107031CC2034608C2
:10004000450403199A2804304307C500C601C60DAC
:100050004408C6074508AE004608AF0080300000DF
:100060000000F6210000000083120000C8002F08E5
:10007000C7004308AE004408AF0080300000000015
:10008000F6210000000083120000CA00C6002F08FD
:10009000C500C90002304307C500C601C60D4408AB
:1000A000C6074508AE004608AF00803000000000DB
:1000B000F6210000000083120000C600CC002F08CB
:1000C000CB00C500831200004708CB004808CC00D5
:1000D000FF30C707031CC8034C084B0403199328BF
:1000E0004908AE004A08AF00803000000000E3215C
:1000F0000000000083120000CB00450883120313A8
:100100008400831383120000461883174B08831260
:100110000313800083120000C90A0319CA0AC50A22
:100120000319C60A6228063083120000C3070318A9
:10013000C40A152800000000A1290800831200004D
:10014000CE002F08CD002E08D0002D08CF000314BC
:10015000CE1F0310D101D10D51080319B7284D0945
:10016000D2004E09D300D20A0319D30ABD28831244
:1001700000004D08D2004E08D30083120000520840
:10018000CD005308CE000314D01F0310031CD02849
:100190004F09D2005009D300D20A0319D30AD62836
:1001A000831200004F08D2005008D30083120000D1
:1001B0005208CF00AD005308D000AE004D08AF008C
:1001C0004E080000000054210000000083120000CF
:1001D000CE002F08CD0051080319F9284D09D10090
:1001E0004E09CF00D10A0319CF0A5108AF004F08BA
:1001F000FE28831200004D08AF004E080800B90128
:10020000BA01BB013B08803E803E031D092908302E
:100210003A02031841295B08BC00BD0101303C05CE
:10022000BE00BF010230BC05BD010310BD1B03149D
:100230003D0CC0003C0CBE064008BF063F083E0413
:1002400003193B290130BC003A08BE00BE1B30290F
:10025000003C03193729BC0D013E031C2B2937290B
:100260000310BC1B0314BC0C013E031C30293908CD
:10027000BE003C04B9000310DB0CBA0A0319BB0A28
:1002800002293908DB00BB010630AD000030AE00AA
:100290003908BA00AF0000309E20BA002F08B9001C
:1002A000BB003B0AB900080083120000D5002F08EC
:1002B000D4002E08D7002D08D600D801D90183120A
:1002C000000057088039031D0130DA005A08031D69
:1002D00080290310D60DD70D57085502031D72292A
:1002E0005608540203187A29031083120000D70C11
:1002F000D60C802983120000D90A5908D8005F293A
:100300008312000057085502031D8829560854021D
:10031000031C9229831200005608D4025708031CBC
:10032000570FD502031083120000D70CD60C5808C3
:10033000D900D8035908031D80295408AF00550877
:100340000800203083168500831285018312851AE8
:10035000A629FF20B0008312850101303002031C62
:10036000DB29073030020318DB29B00301308A0093
:10037000BD30300703188A0A8200C329C629C9295B
:10038000CD29D129D62983128514DB29831205159D
:10039000DB29831285140515DB2983120515051643
:1003A000DB298312851405150516DB2983128514B4
:1003B000051585150516F430AF000130172283129C
:1003C0008501A6290800003A0319EA29803A031991
:1003D000F12900342E08840083132F188317000896
:1003E00008002F088A002E0882000800003A03192E
:1003F000FE29803A0319082AAF0100342E08840030
:1004000083132F1883170008AF00840A0008080020
:1004100000000000F121AD00AE0FAF03AF0A0000F5
:100420000000F121AC002D08AF002C080800B2003C
:100430002F08B100B301B40132083402031D222A8F
:100440003108330203183D2AFB30B5000430B600F2
:10045000FF303507B700FF30B80036080318360FF5
:10046000B8073708B5003808B60038083704031D48
:10047000282AB30A0319B40A1C2A080002340034DB
:100480004C3402345B340034013400344D340234D3
:0C0490005C340034013400345534003476
:00000001FF
