:020000040000FA
:10000000000002285230AE000130AF008030000006
:100010000000F1200000000083120000BD002F0846
:10002000BC005430BE000130BF00831200003C0809
:10003000C0003D08C100FF30BC07031CBD034108E0
:10004000400403199A2804303E07C000C101C10DC5
:100050003F08C1074008AE004108AF0080300000F3
:100060000000F1200000000083120000C3002F08F0
:10007000C2003E08AE003F08AF0080300000000024
:10008000F1200000000083120000C500C1002F080D
:10009000C000C40002303E07C000C101C10D3F08CE
:1000A000C1074008AE004108AF00803000000000EA
:1000B000F1200000000083120000C100C7002F08DB
:1000C000C600C000831200004208C6004308C700F3
:1000D000FF30C207031CC3034708460403199328D3
:1000E0004408AE004508AF00803000000000DE206C
:1000F0000000000083120000C600400883120313B2
:10010000840083138312000041188317460883126A
:100110000313800083120000C40A0319C50AC00A31
:100120000319C10A6228063083120000BE070318B3
:10013000BF0A1528000000009E2808002030831602
:100140008500831285018312851AA3283921B00006
:100150008312850101303002031CD628073030029B
:100160000318D628B00300308A00BA3030070318CD
:100170008A0A8200C028C328C628CA28CE28D228C6
:1001800083128514D62883120515D6288312851468
:100190000515D628831285140516D6288312051551
:1001A0000516D6288312851405150516F430AF0000
:1001B0000130122183128501A3280800003A031997
:1001C000E528803A0319EC2800342E0884008313B4
:1001D0002F188317000808002F088A002E088200B5
:1001E0000800003A0319F928803A03190329AF01DE
:1001F00000342E08840083132F1883170008AF00E3
:10020000840A0008080000000000EC20AD00AE0FDA
:10021000AF03AF0A00000000EC20AC002D08AF00D7
:100220002C080800B2002F08B100B301B401320855
:100230003402031D1D293108330203183829FB300D
:10024000B5000430B600FF303507B700FF30B80006
:1002500036080318360FB8073708B5003808B60057
:1002600038083704031D2329B30A0319B40A1729D0
:1002700008004808B9000310480CBA00B90601305C
:10028000B9053908BB0003103B0DB9000310B90DC7
:100290003908BB003A04C80007304802031839295E
:1002A0004808080002340034603401344834003413
:1002B00001340034613401344934003401340034F1
:0402C00007340034CB
:00000001FF
